:1078000059C0000078C0000076C0000074C00000BD
:1078100072C0000070C000006EC000006CC00000AC
:107820006AC0000068C0000066C0000064C00000BC
:1078300062C0000060C000005EC000005CC00000CC
:107840009AC1000058C0000056C0000054C000009B
:1078500052C0000050C000004EC000004CC00000EC
:107860004AC0000048C0000046C0000044C00000FC
:1078700042C0000040C000003EC000003CC000000C
:107880003AC0000038C0000036C0000034C000001C
:1078900032C0000030C000002EC000002CC000002C
:1078A0002BC0000028C0000026C0000024C000003B
:1078B00022C0000011241FBECFEFD8E0DEBFCDBF35
:1078C00014BEE0E6F0E088E18083108211E0A0E0E1
:1078D000B1E0ECE1FCE702C005900D92AA31B107DE
:1078E000D9F721E0AAE1B1E001C01D92AE39B2079B
:1078F000E1F759D191C184CF0F920FB60F921F9229
:1079000011242F933F934F935F936F938F939F9384
:10791000AF93BF93EF93FF938091D900887F883A0C
:1079200009F4E8C0B8F48038A9F1803A09F41DC11F
:10793000803649F1FF91EF91BF91AF919F918F9167
:107940006F915F914F913F912F911F900F900FBEBC
:107950000F901895803C09F408C1883F09F407C1CD
:10796000883B41F780919D01823209F4F2C008F012
:10797000C5C0813009F4D7C0823109F4E0C0EFEF0F
:10798000E093DB0003C010921A0173988091DC0031
:10799000806C40C08091DB0090911A01913009F415
:1079A00042C030F12EEF290F223008F458C0209148
:1079B0009D01223209F45FC02233D9F590911B0159
:1079C00091BD90911C0192BD80BD80911B01909151
:1079D0001C01019690931C0180931B01FA9AF99A5D
:1079E000F999FECF80911A018F5F80931A010DC023
:1079F000882339F09FEF980F923078F491E09093BC
:107A00001A011092000180939D0180E49091DC00A6
:107A1000892B80688093DC008DCF91E290939D014B
:107A200080939D0106C090919D01913031F092307C
:107A300041F010921A0180E0E9CF8038D1F781E25D
:107A4000EFCF90931A01811102C082E1DCCF813027
:107A500011F482E2D8CF823061F782E3D4CF20E004
:107A600030911B01282B30931C0120931B019F5F39
:107A700090931A01CACFE92FF0E0E75EFE4F8083B2
:107A80009338A8F380911B0190911C01811528E780
:107A9000920778F623E0FC0120935700E89507B69B
:107AA00000FCFDCFADE1B1E04DE951E0FC0161E04A
:107AB0002C9111963C911197090160935700E8951C
:107AC0001124329612964A175B0791F79C012058B1
:107AD0003F4F30931C0120931B0125E0FC012093B4
:107AE0005700E89507B600FCFDCF81E18093570071
:107AF000E8959FCF10921A01739834CF823309F022
:107B00003ECF80911B0181BD80911C0182BDF89AFE
:107B100080911B0190911C01019690931C01809310
:107B20001B01E0B52DCF80911A01E82FF0E0E75F4F
:107B3000FE4FE0818F5F8F7080931A0121CF80917B
:107B40001A01E82FF0E0EF5FFE4FE0818F5F877052
:107B5000F3CFE0911B01F0911C01CF0101969093AE
:107B60001C0180931B01E4910BCF739A0FCF80917E
:107B7000DC00806D4FCF8F938FB78F938CE386BDE2
:107B800088E08CB980910001823038F08150809378
:107B900000018F918FBF8F9118958130D1F781E2CD
:107BA00080939D01F6CF2CD06B9A739881E085BFAE
:107BB00092E095BF95E095BD80936E0080E1809343
:107BC000DA0085E48093DC00789480919D01813215
:107BD000E1F7F8941092DC0010926E0015BC81E081
:107BE00085BF15BE739AF0E0E0E000003197E9F739
:107BF00009953D9A459845983C9A4498449808952B
:107C0000F8DF26982E983998419853985B985598A4
:0C7C10005D986B9A739A0895F894FFCF6A
:107C1C00281E951680780004004B4C424F4F54336D
:0A7C2C003238504276322E3100004B
:040000030000780081
:00000001FF
