:107C000059C0000078C0000076C0000074C00000B9
:107C100072C0000070C000006EC000006CC00000A8
:107C20006AC0000068C0000066C0000064C00000B8
:107C300062C0000060C000005EC000005CC00000C8
:107C400070C1000058C0000056C0000054C00000C1
:107C500052C0000050C000004EC000004CC00000E8
:107C60004AC0000048C0000046C0000044C00000F8
:107C700042C0000040C000003EC000003CC0000008
:107C80003AC0000038C0000036C0000034C0000018
:107C900032C0000030C000002EC000002CC0000028
:107CA0002BC0000028C0000026C0000024C0000037
:107CB00022C0000011241FBECFEFD8E0DEBFCDBF31
:107CC00014BEE0E6F0E088E18083108211E0A0E0DD
:107CD000B1E0E2EDFFE702C005900D92AA31B107D5
:107CE000D9F721E0AAE1B1E001C01D92AE39B20797
:107CF000E1F734D16CC184CF1F920F920FB60F926F
:107D000011242F933F934F935F936F937F938F93A0
:107D10009F93AF93BF93EF93FF938091D900887F98
:107D2000883A09F4AFC060F48038A1F0803A09F4D1
:107D3000DAC0803609F0E4C010921A017398D4C0FA
:107D4000803C09F4D0C0883F09F4D2C0883B09F0D8
:107D5000D7C09BC09091DB0080911A01813011F156
:107D600060F08430D0F520E030E030911B01292B09
:107D700030931C0120931B013CC0992329F09330C0
:107D800038F481E080931A011092000180E404C06D
:107D900081E280939D0180E090939D01882309F406
:107DA00069C06BC080919D01813019F0823041F033
:107DB00061C0903809F05EC081E280939D015AC095
:107DC00080931A01911102C082E104C0913009F040
:107DD00051C082E280939D0191C020919D01223289
:107DE00009F048C0E82FF0E0E75EFE4F908383384B
:107DF00020F48F5F80931A0181C080911B019091C4
:107E00001C0181152CE7920708F034C023E0FC0127
:107E100020935700E89507B600FCFDCFADE1B1E037
:107E200041E0BC016D5171402C91FB01EA0FFB1F39
:107E300011965C91119730E0352B09014093570062
:107E4000E89511241296F1E0AD39BF0769F79C015E
:107E500020583F4F30931C0120931B0125E0FC016B
:107E600020935700E89507B600FCFDCF81E1809391
:107E70005700E89510921A0180E09091DC0090681C
:107E8000892B39C010921A01739880919D0182311B
:107E900071F08232C1F0813011F580911A01E82F22
:107EA000F0E0E75FFE4FE0818F5F8F7009C0809147
:107EB0001A01E82FF0E0EF5FFE4FE0818F5F8770DF
:107EC00080931A010DC0E0911B01F0911C01CF01BC
:107ED000019690931C0180931B01E49101C0EFEF88
:107EE000E093DB0001C0739A8091DC00806C03C0DA
:107EF0008091DC00806D8093DC0002C080E4BDCF07
:107F0000FF91EF91BF91AF919F918F917F916F9171
:107F10005F914F913F912F910F900FBE0F901F9047
:107F200018951F920F920FB60F9211248F938CE326
:107F300086BD88E08CB980910001823020F08150AC
:107F40008093000105C0813019F481E280939D0186
:107F50008F910F900FBE0F901F9018952CD06B9A99
:107F6000739881E085BF92E095BF95E095BD8093C1
:107F70006E008EE08093DA0085E48093DC007894D4
:107F800080919D018132E1F7F8941092DC0010920B
:107F90006E0015BC81E085BF15BE739AE0E0F0E08D
:107FA00000003197E9F709953D9A459845983C9A24
:107FB000449844980895F8DF26982E983998419867
:107FC00053985B9855985D986B9A739A0895F894B6
:027FD000FFCFE1
:107FD200281E9516807C0000004D44424F4F5433BA
:0A7FE2003238504276322E31000092
:0400000300007C007D
:00000001FF
